{
  "contractName": "Bouhmid",
  "abi": [
    {
      "inputs": [],
      "payable": false,
      "stateMutability": "nonpayable",
      "type": "constructor"
    },
    {
      "anonymous": false,
      "inputs": [
        {
          "indexed": false,
          "name": "_value",
          "type": "uint256"
        }
      ],
      "name": "Balance",
      "type": "event"
    },
    {
      "constant": false,
      "inputs": [
        {
          "name": "_address",
          "type": "address"
        },
        {
          "name": "amount",
          "type": "uint256"
        }
      ],
      "name": "addBalance",
      "outputs": [],
      "payable": false,
      "stateMutability": "nonpayable",
      "type": "function"
    },
    {
      "constant": true,
      "inputs": [
        {
          "name": "_address",
          "type": "address"
        }
      ],
      "name": "getBalance",
      "outputs": [
        {
          "name": "",
          "type": "uint256"
        }
      ],
      "payable": false,
      "stateMutability": "view",
      "type": "function"
    },
    {
      "constant": false,
      "inputs": [
        {
          "name": "_address",
          "type": "address"
        },
        {
          "name": "amount",
          "type": "uint256"
        }
      ],
      "name": "withdraw",
      "outputs": [
        {
          "name": "",
          "type": "uint256"
        }
      ],
      "payable": false,
      "stateMutability": "nonpayable",
      "type": "function"
    }
  ],
  "bytecode": "0x608060405234801561001057600080fd5b50336000806101000a81548173ffffffffffffffffffffffffffffffffffffffff021916908373ffffffffffffffffffffffffffffffffffffffff16021790555061030b806100606000396000f3fe608060405234801561001057600080fd5b50600436106100415760003560e01c806321e5383a14610046578063f3fef3a314610094578063f8b2cb4f146100f6575b600080fd5b6100926004803603604081101561005c57600080fd5b81019080803573ffffffffffffffffffffffffffffffffffffffff1690602001909291908035906020019092919050505061014e565b005b6100e0600480360360408110156100aa57600080fd5b81019080803573ffffffffffffffffffffffffffffffffffffffff1690602001909291908035906020019092919050505061021b565b6040518082815260200191505060405180910390f35b6101386004803603602081101561010c57600080fd5b81019080803573ffffffffffffffffffffffffffffffffffffffff169060200190929190505050610293565b6040518082815260200191505060405180910390f35b80600160008473ffffffffffffffffffffffffffffffffffffffff1673ffffffffffffffffffffffffffffffffffffffff168152602001908152602001600020600001600082825401925050819055507fe8d947d7ebdd7b8b8fa2ad2022c7591418ac32d8c29c5f8a8fc9de52ffa54092600160008473ffffffffffffffffffffffffffffffffffffffff1673ffffffffffffffffffffffffffffffffffffffff168152602001908152602001600020600001546040518082815260200191505060405180910390a15050565b600080600160008573ffffffffffffffffffffffffffffffffffffffff1673ffffffffffffffffffffffffffffffffffffffff1681526020019081526020016000209050828160000154106102815782816000016000828254039250508190555061028b565b600091505061028d565b505b92915050565b6000600160008373ffffffffffffffffffffffffffffffffffffffff1673ffffffffffffffffffffffffffffffffffffffff16815260200190815260200160002060000154905091905056fea165627a7a723058209bc38af688bf3d844989d7f4f1aa334d4ee56ba29096703c42acbec7e6a51dd20029",
  "source": "pragma solidity >=0.5.8 <0.6.0;\n// pragma experimental ABIEncoderV2;\ncontract Bouhmid {\n    address owner;\n   constructor() public{\n       owner = msg.sender;\n   }\n    struct Users {\n        uint Availaiblebalance ;\n        uint totalWithdraw;\n    }\n    event Balance(\n         uint _value\n        );\n\n    // modifier onlyOwner(){\n    //     require(owner == msg.sender,\"you are not the owner\");\n    //     _;\n    // }\n    \n    mapping ( address=>Users) user;\n    function addBalance(address _address,uint amount) public {\n        user[_address].Availaiblebalance += amount;\n        emit Balance(user[_address].Availaiblebalance);\n    }\n    function getBalance(address _address) public view returns(uint){\n       return user[_address].Availaiblebalance ;\n    }\n    function withdraw(address _address,uint amount) public  returns(uint){\n        Users storage  p = user[_address];\n        if(p.Availaiblebalance >= amount) p.Availaiblebalance -= amount;\n        else return 0;\n        \n    }\n}",
  "sourcePath": "C:/Users/ahmed/Desktop/tvarvich/solidity/contracts/Bouhmid.sol",
  "compiler": {
    "name": "solc",
    "version": "0.5.8+commit.23d335f2.Emscripten.clang"
  },
  "schemaVersion": "3.0.16",
  "updatedAt": "2019-12-06T18:40:40.170Z",
  "devdoc": {
    "methods": {}
  },
  "userdoc": {
    "methods": {}
  }
}