{
  "contractName": "Migrations",
  "abi": [
    {
      "inputs": [],
      "payable": false,
      "stateMutability": "nonpayable",
      "type": "constructor"
    },
    {
      "constant": false,
      "inputs": [
        {
          "name": "_address",
          "type": "address"
        },
        {
          "name": "amount",
          "type": "uint256"
        }
      ],
      "name": "addBalance",
      "outputs": [
        {
          "name": "",
          "type": "uint256"
        }
      ],
      "payable": false,
      "stateMutability": "nonpayable",
      "type": "function"
    },
    {
      "constant": true,
      "inputs": [
        {
          "name": "_address",
          "type": "address"
        }
      ],
      "name": "getBalance",
      "outputs": [
        {
          "name": "",
          "type": "uint256"
        }
      ],
      "payable": false,
      "stateMutability": "view",
      "type": "function"
    },
    {
      "constant": false,
      "inputs": [
        {
          "name": "_address",
          "type": "address"
        },
        {
          "name": "amount",
          "type": "uint256"
        }
      ],
      "name": "withdraw",
      "outputs": [
        {
          "name": "",
          "type": "uint256"
        }
      ],
      "payable": false,
      "stateMutability": "nonpayable",
      "type": "function"
    }
  ],
  "bytecode": "0x608060405234801561001057600080fd5b50336000806101000a81548173ffffffffffffffffffffffffffffffffffffffff021916908373ffffffffffffffffffffffffffffffffffffffff1602179055506102ef806100606000396000f3fe608060405234801561001057600080fd5b50600436106100415760003560e01c806321e5383a14610046578063f3fef3a3146100a8578063f8b2cb4f1461010a575b600080fd5b6100926004803603604081101561005c57600080fd5b81019080803573ffffffffffffffffffffffffffffffffffffffff16906020019092919080359060200190929190505050610162565b6040518082815260200191505060405180910390f35b6100f4600480360360408110156100be57600080fd5b81019080803573ffffffffffffffffffffffffffffffffffffffff169060200190929190803590602001909291905050506101ff565b6040518082815260200191505060405180910390f35b61014c6004803603602081101561012057600080fd5b81019080803573ffffffffffffffffffffffffffffffffffffffff169060200190929190505050610277565b6040518082815260200191505060405180910390f35b600081600160008573ffffffffffffffffffffffffffffffffffffffff1673ffffffffffffffffffffffffffffffffffffffff16815260200190815260200160002060000160008282540192505081905550600160008473ffffffffffffffffffffffffffffffffffffffff1673ffffffffffffffffffffffffffffffffffffffff16815260200190815260200160002060000154905092915050565b600080600160008573ffffffffffffffffffffffffffffffffffffffff1673ffffffffffffffffffffffffffffffffffffffff1681526020019081526020016000209050828160000154106102655782816000016000828254039250508190555061026f565b6000915050610271565b505b92915050565b6000600160008373ffffffffffffffffffffffffffffffffffffffff1673ffffffffffffffffffffffffffffffffffffffff16815260200190815260200160002060000154905091905056fea165627a7a72305820ceab3e9e8ac1cb11de4b6addd20014b91a66ca64c1dac68501d77c054c8e44f70029",
  "source": "pragma solidity >=0.5.8 <0.6.0;\n// pragma experimental ABIEncoderV2;\ncontract Migrations {\n    address owner;\n   constructor() public{\n       owner = msg.sender;\n   }\n    struct Users {\n        uint Availaiblebalance ;\n        uint totalWithdraw;\n    }\n    modifier onlyOwner(){\n        require(owner == msg.sender,\"you are not the owner\");\n        _;\n    }\n    \n    mapping ( address=>Users) user;\n    function addBalance(address _address,uint amount) public returns(uint)  {\n        user[_address].Availaiblebalance += amount;\n        return user[_address].Availaiblebalance;\n    }\n    function getBalance(address _address) public view returns(uint){\n       return user[_address].Availaiblebalance ;\n    }\n    function withdraw(address _address,uint amount) public  returns(uint){\n        Users storage  p = user[_address];\n        if(p.Availaiblebalance >= amount) p.Availaiblebalance -= amount;\n        else return 0;\n        \n    }\n}",
  "sourcePath": "C:/Users/ahmed/Desktop/tvarvich/solidity/contracts/Migrations.sol",
  "compiler": {
    "name": "solc",
    "version": "0.5.8+commit.23d335f2.Emscripten.clang"
  },
  "schemaVersion": "3.0.16",
  "updatedAt": "2019-12-06T18:40:40.254Z",
  "devdoc": {
    "methods": {}
  },
  "userdoc": {
    "methods": {}
  }
}